:100000000C9462000C948A000C948A000C948A0070
:100010000C948A000C948A000C948A000C948A0038
:100020000C948A000C948A000C948A000C948A0028
:100030000C948A000C948A000C948A000C948A0018
:100040000C9430040C948A000C94FE030C94D80396
:100050000C948A000C948A000C948A000C948A00F8
:100060000C948A000C948A000000000024002700F1
:100070002A0000000000250028002B0000000008D6
:10008000000201000003040700000000000000005F
:1000900000000000230026002900040404040404D6
:1000A0000404020202020202030303030303010227
:1000B00004081020408001020408102001020408F6
:1000C0001020BF0411241FBECFEFD8E0DEBFCDBF8C
:1000D00011E0A0E0B1E0E0EEF2E102C005900D9287
:1000E000A035B107D9F722E0A0E5B1E001C01D922B
:1000F000A231B207E1F710E0C2E6D0E004C02197D8
:10010000FE010E946809C136D107C9F70E9409059E
:100110000C946E090C940000AF92BF92CF92DF92C4
:10012000EF92FF920F931F93CF93DF936C017B01AC
:100130008B01040F151FEB015E01AE18BF08C0173D
:10014000D10759F06991D601ED91FC910190F081B0
:10015000E02DC6010995892B79F7C501DF91CF9173
:100160001F910F91FF90EF90DF90CF90BF90AF90D5
:100170000895FC01538D448D252F30E0842F90E0AD
:10018000821B930B541710F0CF9608950197089592
:10019000FC01918D828D981761F0A28DAE0FBF2F5B
:1001A000B11D5D968C91928D9F5F9F73928F90E0B1
:1001B00008958FEF9FEF0895FC01918D828D981720
:1001C00031F0828DE80FF11D858D90E008958FEF5D
:1001D0009FEF0895FC01918D228D892F90E0805C26
:1001E0009F4F821B91098F73992708958DE591E0A8
:1001F0000E94EA0021E0892B09F420E0822F089573
:1002000080E090E0892B29F00E94F60081110C9487
:1002100000000895FC01A48DA80FB92FB11DA35AA9
:10022000BF4F2C91848D90E001968F739927848F16
:10023000A689B7892C93A089B1898C918370806439
:100240008C93938D848D981306C00288F389E02DDA
:1002500080818F7D80830895EF92FF920F931F938B
:10026000CF93DF93EC0181E0888F9B8D8C8D981369
:100270001AC0E889F989808185FF15C09FB7F89475
:10028000EE89FF896083E889F989808183708064C1
:1002900080839FBF81E090E0DF91CF911F910F910C
:1002A000FF90EF900895F62E0B8D10E00F5F1F4F1B
:1002B0000F731127E02E8C8D8E110CC00FB607FC2A
:1002C000FACFE889F989808185FFF5CFCE010E94B8
:1002D0000A01F1CFEB8DEC0FFD2FF11DE35AFF4F1B
:1002E000F0829FB7F8940B8FEA89FB898081806246
:1002F000CFCFCF93DF93EC01888D8823B9F0AA8903
:10030000BB89E889F9898C9185FD03C0808186FDD0
:100310000DC00FB607FCF7CF8C9185FFF2CF80811F
:1003200085FFEDCFCE010E940A01E9CFDF91CF9189
:10033000089590E0FC01E458FF4F2491FC01E25540
:10034000FF4F3491FC01E656FF4FE491EE23C9F0D4
:10035000222339F0233001F1A8F4213019F12230A1
:1003600029F1F0E0EE0FFF1FEE58FF4FA591B49179
:100370008FB7F894EC91611126C030953E233C93E1
:100380008FBF08952730A9F02830C9F0243049F7ED
:10039000809180008F7D03C0809180008F77809353
:1003A0008000DFCF84B58F7784BDDBCF84B58F7DB0
:1003B000FBCF8091B0008F778093B000D2CF809137
:1003C000B0008F7DF9CF3E2BDACFCF93DF9390E053
:1003D000FC01E255FF4F249186569F4FFC0184910A
:1003E0008823D1F090E0880F991FFC01E859FF4F56
:1003F000A591B491FC01EE58FF4FC591D4916111C4
:100400000EC09FB7F8948C91E22FE0958E238C93C9
:100410002881E223E8839FBFDF91CF9108958FB7B2
:10042000F894EC91E22BEC938FBFF6CF3FB7F894A2
:100430008091550190915601A0915701B0915801BA
:1004400026B5A89B05C02F3F19F00196A11DB11D2F
:100450003FBFBA2FA92F982F8827BC01CD01620F6B
:10046000711D811D911D42E0660F771F881F991F26
:100470004A95D1F70895089590E080E00895FC0131
:1004800001900020E9F73197AF01481B590BBC01DF
:100490008AEF91E00C948C008F929F92AF92BF9262
:1004A0000F931F93CF93DF93CDB7DEB7A1970FB60E
:1004B000F894DEBF0FBECDBF19A2423008F44AE067
:1004C0008E010F5D1F4F842E912CB12CA12CA50104
:1004D00094010E944609E62FB901CA01EA30F4F4FA
:1004E000E05DD801EE938D01232B242B252B79F78A
:1004F00090E080E0109719F0CD010E943F02A19694
:100500000FB6F894DEBF0FBECDBFDF91CF911F9124
:100510000F91BF90AF909F908F900895E95CE1CFCD
:10052000CF93DF93EC0160E08E810E94990161E03E
:100530008E810E94990160E08E810E9499018BE872
:1005400091E00197F1F7DF91CF910895CF92DF927B
:10055000EF92FF920F931F93CF93DF936C017C0177
:1005600087E0E80EF11CD0E0C0E0062F10E0B801F3
:100570000C2E02C0759567950A94E2F76170F70139
:1005800081917F010E9499012196C430D10579F7AC
:10059000C601DF91CF911F910F91FF90EF90DF90F7
:1005A000CF900C949002CF92DF92EF92FF920F9334
:1005B0001F93CF93DF93EC01F62E642F8C810E9462
:1005C00099018D818F3F19F060E00E9499010F2DF4
:1005D00010E08F8584FF25C06E0187E0C80ED11C16
:1005E000F12CE12CB8010E2C02C0759567950A9488
:1005F000E2F76170F60181916F010E949901FFEFAE
:10060000EF1AFF0A88E0E816F10461F7CE01DF91E6
:10061000CF911F910F91FF90EF90DF90CF900C94AE
:100620009002B80184E0759567958A95E1F7CE014F
:100630000E94A6026F2DCE01DF91CF911F910F91E5
:10064000FF90EF90DF90CF900C94A60240E0682FCF
:100650008AEF91E00C94D302CF93DF93823029F498
:100660009091090298609093090280930D02109274
:100670000E0280E480930F0280E18093100280E5F7
:100680008093110261E08091FE010E94E50180915A
:10069000FF018F3F19F061E00E94E50161E0809168
:1006A00000020E94E501CAEFD1E09E012A5F3140BD
:1006B0008091090284FD0BC084E090E02196281708
:1006C000390744F461E08E810E94E501EECF88E0B5
:1006D00090E0F4CF8BE39DE00197F1F760E080912B
:1006E000FE010E94990160E0809100020E94990140
:1006F0008091FF018F3F19F060E00E949901809185
:10070000090284FD39C063E08AEF91E00E94A602ED
:10071000CBE4D6E4CE010197F1F763E08AEF91E0F4
:100720000E94A6022197F1F763E08AEF91E00E9410
:10073000A60283E592E00197F1F762E08AEF91E08B
:100740000E94A6028091090280620E94260384E032
:1007500080930A028CE00E94260381E00E94260317
:100760008BE39FE10197F1F782E080930B0286E033
:10077000DF91CF910C94260380620E9426038BE4C4
:1007800096E40197F1F78091090280620E942603A6
:1007900083E592E00197F1F78091090280620E945F
:1007A0002603D0CF41E00E94D30281E090E008957B
:1007B0001F920F920FB60F9211242F933F934F93D6
:1007C0005F936F937F938F939F93AF93BF93EF93B9
:1007D000FF938DE591E00E940A01FF91EF91BF9197
:1007E000AF919F918F917F916F915F914F913F91C9
:1007F0002F910F900FBE0F901F9018951F920F9280
:100800000FB60F9211242F938F939F93EF93FF9323
:10081000E0916D01F0916E018081E0917301F091A2
:10082000740182FD1BC09081809176018F5F8F7370
:1008300020917701821741F0E0917601F0E0E35AD0
:10084000FE4F958F80937601FF91EF919F918F914D
:100850002F910F900FBE0F901F9018958081F4CFAD
:100860001F920F920FB60F9211242F933F938F93E5
:100870009F93AF93BF938091510190915201A091AA
:100880005301B09154013091500123E0230F2D37D3
:1008900058F50196A11DB11D20935001809351017F
:1008A00090935201A0935301B0935401809155014C
:1008B00090915601A0915701B09158010196A11D48
:1008C000B11D8093550190935601A0935701B093A9
:1008D0005801BF91AF919F918F913F912F910F90B0
:1008E0000FBE0F901F90189526E8230F0296A11DAA
:1008F000B11DD2CFCF92DF92EF92FF920F931F9351
:10090000E82FF92F05C0015011092109310961F1C2
:10091000908196239417B9F305C00150110921095C
:10092000310911F1908196239413F7CFC12CD12C6A
:10093000E12CF12C0AC08FEFC81AD80AE80AF80A8D
:100940000C151D052E053F0579F08081862384173F
:1009500091F36C2D7D2D8E2D9F2D1F910F91FF906A
:10096000EF90DF90CF90089560E070E080E090E03D
:100970001F910F91FF90EF90DF90CF900895EDE5DC
:10098000F1E01382128288EE93E0A0E0B0E084836D
:100990009583A683B78384E091E09183808385EC7F
:1009A00090E09587848784EC90E09787868780EC39
:1009B00090E0918B808B81EC90E0938B828B82EC2A
:1009C00090E0958B848B86EC90E0978B868B118ED4
:1009D000128E138E148EEAEFF1E01382128286E1FA
:1009E00091E09183808387E084838FEF858386E025
:1009F000868385E0878384E0808783E0818782E047
:100A000082871386148615861686178681E00C94D5
:100A10002C03789484B5826084BD84B5816084BDE4
:100A200085B5826085BD85B5816085BD80916E008C
:100A3000816080936E0010928100809181008260BD
:100A400080938100809181008160809381008091FA
:100A500080008160809380008091B10084608093E9
:100A6000B1008091B00081608093B00080917A00E5
:100A7000846080937A0080917A00826080937A000B
:100A800080917A00816080937A0080917A008068FA
:100A900080937A001092C100E0916D01F0916E0197
:100AA00082E08083E0916901F0916A011082E09117
:100AB0006B01F0916C018FEC808310927501E091D5
:100AC0007101F091720186E08083E0916F01F091F5
:100AD0007001808180618083E0916F01F0917001ED
:100AE000808188608083E0916F01F0917001808146
:100AF00080688083E0916F01F091700180818F7D2B
:100B0000808361E08BE00E94E50160E08AE00E9462
:100B1000E50182E00E942C03E1E080910D02811149
:100B2000E0E0E195F0E0E650FE4F848980680E94A5
:100B300026038EE191E00E943F022BE3222E2FE15B
:100B4000322EC7E3D0E033E2A32EB12C40E0842E56
:100B500040E0942E60E08BE00E949901C101019772
:100B6000F1F761E08BE00E949901CE010197F1F766
:100B700060E08BE00E949901C5010197F1F7E8EB75
:100B8000F0E06491E4EAF0E08491E82FF0E0EE0F09
:100B9000FF1FE057FF4F8591949100E412E42FE08E
:100BA00030E0462F0E947A04611571058105910598
:100BB00029F06F5F7F4F8F4F9F4F9F700E941D08DE
:100BC00020E034E244E759E40E947C0720E030E072
:100BD00041E655E40E947C0720E030E242E454E420
:100BE0000E94D40820E030E040E05FE30E94D40897
:100BF0002CE53FE842E250E40E94D40820E030E0D7
:100C000048EC52E40E94D4086093590170935A0151
:100C100080935B0190935C01E0910D02E23008F05B
:100C200061C0E150F0E0E650FE4F848980680E9488
:100C300026038FE291E00E943F02E0910D02E23034
:100C400008F052C0E150F0E0E650FE4F8489806821
:100C50000E942603C0905901D0905A01E0905B0198
:100C6000F0905C01A7019601C701B6010E944109FD
:100C70008823E1F180E491E00E943F028CE491E05E
:100C80000E943F020E9416026B017C018AEF482EEF
:100C9000512C612C712C0E9416026C197D098E0951
:100CA0009F09683E734081059105A8F3F1E04F1A52
:100CB00051086108710828EEC20E23E0D21EE11C23
:100CC000F11C411451046104710429F78114910449
:100CD00009F440CF0E94F600882309F43BCF0E941C
:100CE000000038CFE1E09ECFE1E0ADCF2601370133
:100CF000E89477F82FEF3FEF4FE75FE7C301B201CA
:100D00000E94410981110DC02FEF3FEF4FE75FE7D0
:100D1000C301B2010E94770718161CF484E491E025
:100D2000ABCF2FEF3FEF4FE75FE4C701B6010E9463
:100D3000CF0818161CF488E491E09ECF2FEF3FEF08
:100D40004FE75FECC701B6010E94770787FDF3CF3D
:100D500020E030E0A901C701B6010E94770787FFB4
:100D60000AC041E06DE28AEF91E00E94D302F7FAF7
:100D7000F094F7F8F0942AE037ED43EA5BE3C7011B
:100D8000B6010E940B072B013C010E94EE076B018C
:100D90007C010E941D089B01AC01C301B2010E94AD
:100DA0000A072B013C014AE0C701B6010E944C0230
:100DB00041E06EE28AEF91E00E94D30220E030E051
:100DC00040E251E4C301B2010E94D4082B013C016E
:100DD0000E94EE076B01F12CE12C4AE0C701B6013D
:100DE0000E944C02C701B6010E941D089B01AC0184
:100DF000C301B2010E940A0720E030E040E251E462
:100E00000E94D4080E94EE0790E080E04AE00E9431
:100E10004C0234CF5058BB27AA270E9422070C94BB
:100E200095080E94870838F00E948E0820F039F457
:100E30009F3F19F426F40C9484080EF4E095E7FB28
:100E40000C947E08E92F0E94A60858F3BA1762078F
:100E500073078407950720F079F4A6F50C94C80869
:100E60000EF4E0950B2EBA2FA02D0B01B9019001C5
:100E70000C01CA01A0011124FF27591B99F0593F09
:100E800050F4503E68F11A16F040A22F232F342F51
:100E90004427585FF3CF469537952795A795F0409F
:100EA0005395C9F77EF41F16BA0B620B730B840BB4
:100EB000BAF09150A1F0FF0FBB1F661F771F881F6C
:100EC000C2F70EC0BA0F621F731F841F48F48795C4
:100ED00077956795B795F7959E3F08F0B0CF9395B6
:100EE000880F08F09927EE0F9795879508950E942F
:100EF0005A0808F481E008950E9490070C94950820
:100F00000E948E0858F00E94870840F029F45F3F45
:100F100029F00C947E0851110C94C9080C94840893
:100F20000E94A60868F39923B1F3552391F3951B0A
:100F3000550BBB27AA2762177307840738F09F5FFA
:100F40005F4F220F331F441FAA1FA9F335D00E2E67
:100F50003AF0E0E832D091505040E695001CCAF7D4
:100F60002BD0FE2F29D0660F771F881FBB1F261797
:100F700037074807AB07B0E809F0BB0B802DBF016E
:100F8000FF2793585F4F3AF09E3F510578F00C943D
:100F90007E080C94C9085F3FE4F3983ED4F386952D
:100FA00077956795B795F7959F5FC9F7880F911D5E
:100FB0009695879597F90895E1E0660F771F881F4A
:100FC000BB1F621773078407BA0720F0621B730BFD
:100FD000840BBA0BEE1F88F7E09508950E94AE08C7
:100FE00088F09F5798F0B92F9927B751B0F0E1F0EA
:100FF000660F771F881F991F1AF0BA95C9F714C09A
:10100000B13091F00E94C808B1E008950C94C8086E
:10101000672F782F8827B85F39F0B93FCCF38695D2
:1010200077956795B395D9F73EF49095809570952F
:1010300061957F4F8F4F9F4F0895E89409C097FBAC
:101040003EF490958095709561957F4F8F4F9F4F9F
:101050009923A9F0F92F96E9BB279395F6958795E3
:1010600077956795B795F111F8CFFAF4BB0F11F4A6
:1010700060FF1BC06F5F7F4F8F4F9F4F16C088234D
:1010800011F096E911C0772321F09EE8872F762F83
:1010900005C0662371F096E8862F70E060E02AF0C4
:1010A0009A95660F771F881FDAF7880F96958795B0
:1010B00097F90895990F0008550FAA0BE0E8FEEF85
:1010C00016161706E807F907C0F012161306E4070C
:1010D000F50798F0621B730B840B950B39F40A2605
:1010E00061F0232B242B252B21F408950A2609F4E3
:1010F000A140A6958FEF811D811D089597F99F67E7
:1011000080E870E060E008959FEF80EC089500248F
:101110000A941616170618060906089500240A945C
:1011200012161306140605060895092E0394000CE2
:1011300011F4882352F0BB0F40F4BF2B11F460FF71
:1011400004C06F5F7F4F8F4F9F4F089557FD90589A
:10115000440F551F59F05F3F71F04795880F97FB7B
:10116000991F61F09F3F79F0879508951216130635
:101170001406551FF2CF4695F1DF08C01616170664
:101180001806991FF1CF8695710561050894089599
:10119000E894BB2766277727CB0197F908950E942B
:1011A0005A0808F48FEF08950E94E7080C949508F8
:1011B0000E94870838F00E948E0820F0952311F0D5
:1011C0000C947E080C94840811240C94C9080E9485
:1011D000A60870F3959FC1F3950F50E0551F629FCD
:1011E000F001729FBB27F00DB11D639FAA27F00D80
:1011F000B11DAA1F649F6627B00DA11D661F829FA7
:101200002227B00DA11D621F739FB00DA11D621F8B
:10121000839FA00D611D221F749F3327A00D611DA8
:10122000231F849F600D211D822F762F6A2F11248A
:101230009F5750409AF0F1F088234AF0EE0FFF1FBD
:10124000BB1F661F771F881F91505040A9F79E3F14
:10125000510580F00C947E080C94C9085F3FE4F3BC
:10126000983ED4F3869577956795B795F795E7956A
:101270009F5FC1F7FE2B880F911D9695879597F973
:1012800008950E945A08880B990B0895A1E21A2E1E
:10129000AA1BBB1BFD010DC0AA1FBB1FEE1FFF1F1A
:1012A000A217B307E407F50720F0A21BB30BE40B6A
:1012B000F50B661F771F881F991F1A9469F76095B1
:1012C0007095809590959B01AC01BD01CF0108956B
:1012D000EE0FFF1F0590F491E02D0994F894FFCFD5
:1012E000000000002C018C00B9007901EA00C80060
:1012F000DC0000000000D2038C003C023B02546181
:10130000726765742044697374616E63653A002086
:1013100020202020202020202020202020202000ED
:101320006E616E00696E66006F76660020636D0008
:00000001FF
